:100000000EC0189518951895189518951895189567
:1000100018951895189518951895189518958FE5B1
:100020008DBFC8E3E0E24E2E82E08EBFD2E0F2E068
:100030005F2EA89584B7082E877F84BF88E1992713
:1000400081BD91BDEEEFF1E0A0E6B0E088278D9391
:100050003197E9F76624BB9AC39ABC9AC49A8DE09B
:10006000A0E6B0E08D9388278C93A0E6B0E03ED068
:10007000E4E5F3E0B1D08DE0A0E6B0E037D08D93B9
:1000800088278C9300EB14E020E030E0ABE6B0E092
:100090000D931D932D933C93C39AC4988AE090E0EE
:1000A0008CD0ABE6B0E00D911D912D913C91AFE667
:1000B000B0E00D931D932D933C9318D181E08A936A
:1000C00080E08A9388E08A93A0E6B0E0A9D08A9382
:1000D000A0E6B0E0E7E383E0E894A8D0C398C49A30
:1000E0008CE291E06AD0D8CFF894FFCF8F938D91B6
:1000F0008823E9F711978F91089500FC05D00895A2
:1001000030D005D001F8F9CF37D03FD00895842FF3
:10011000952FA62FB72FE894452B462B472B11F48C
:1001200068940895402F512F622F732F00271127B5
:1001300022273327F0E2440F551F661F771F001F49
:10014000111F221F331F081B190B2A0B3B0B416089
:1001500028F4080F191F2A1F3B1F4E7FFA9559F7E5
:1001600008950024E89477FF02C006D0689400F850
:1001700009D010F80124089512D04F5F5F4F6F4FE0
:100180007F4F0895E89437FF0895009510952095C6
:1001900030950F5F1F4F2F4F3F4F68940895409544
:1001A00050956095709508953197F1F7089568948A
:1001B00062F80895E89462F80895EF93FF93EE27AC
:1001C000E82BE92B31F0E0EDF7E03197F1F70197FB
:1001D000D1F7FF91EF91089504D00D920020E1F73F
:1001E0000895C89531960020089591E0882321F064
:1001F0008894991F8A95E9F7892F909508950F9310
:100200008F9308E09927881F08F493950A95D9F7EA
:100210008F910F910895041B150B260B370B089532
:100220008FEF83959D919923E1F70895DEDFFF27F6
:100230000080082A0082E3950080082A0082082FA7
:10024000692F49918D9118811730B9F419811030B7
:1002500031F4806880952A81285F992724C0113065
:1002600041F4CDDF90FD806880952A81275F992732
:100270001AC0C5DF90FF8068F7CF1981103029F4CC
:1002800080952A81275F99270EC0113039F4B7DF96
:1002900080952A81265F9095917005C0B0DF80958A
:1002A0002A81265F9170089416F028F401C018F096
:1002B0000080062203C00080002A000000820BD0CC
:1002C0000AD0969587952A9579F74A9509F0BACF7D
:1002D000239601D008958F939F9380916F00909102
:1002E00070000197F1F79F918F91089500E012E15E
:1002F0002AE730E0AFE6B0E04D915D916D917C91E1
:10030000FFDEAFE6B0E04D935D936D937D93AFE676
:10031000B0E00D911D912D913C914AE250E060E0DA
:1003200070E079DFAFE6B0E00D931D932D933D9320
:10033000AFE6B0E00D911D912D913C9148E050E069
:1003400060E070E0DDDEAFE6B0E04D935D936D936D
:0E0350007D9308952A2A2A536573616D00007B
:00000001FF
