:1000000014C0189518951895189518951895189561
:100010001895189518951895189518951895189578
:10002000189518951895189518958FED8DBFC8ECF3
:10003000E0EB4E2EDD275D2EA89584B7082E877F36
:1000400084BF88E1992781BD91BDEEE7F0E0A0E68D
:10005000B0E088278D933197E9F780E489B983E090
:1000600082B988E18AB972E07BB96624D09AD89ABD
:10007000D19AD99A27D1EAECF2E05ED063D04CD085
:10008000082F013009F033C0A0E6EAE035D0A0E641
:10009000ECEDF2E02FEF91E084D0ABE60C93009111
:1000A0006B00003010F009F001C014C0A0E63ED093
:1000B000E2EEF2E041D0EBE6F0E0A8E9B0E0BCD03F
:1000C00033D040D0D998D898E3E0F0E042D0D89A25
:1000D000D99A0DC000916B00003010F009F007C0F4
:1000E000E4EEF2E029D02ED0E3E0F0E032D0C7CF4A
:1000F000F894FFCFA8E9B0E013D08D3039F0EE23AB
:10010000D9F38D93EA9563FE20D0F6CF63FC01C04E
:100110001CD088278C93089581E05F9B88270895E1
:100120005F9BFECF8CB10895A8E9B0E08D91882344
:1001300011F00BD0FBCF08955FD0802D11F005D0CA
:10014000FBCF08958DE001D08AE05D9BFECF8CB996
:10015000089588EE93E00CD03197D9F70895319740
:10016000F1F70895689462F80895E89462F80895A4
:10017000EF93FF93EE27E82BE92B31F0E0EDF7E06A
:100180003197F1F70197D1F7FF91EF910895019120
:10019000119121913081089599910027A90FB01FE5
:1001A0001197492F4A955E2F6F2FE8941127439599
:1001B000203019F0C895802D01C080818823B9F0C6
:1001C0007C917723A1F0781739F40EF0042F139562
:1001D000689411963196EBCF112321F0411BA11B9E
:1001E0001127B10BE894E52FF62F1196E0CF882365
:1001F00011F0002708950895C895319600200895BC
:10020000000F111F221F331F089500951095209590
:1002100030950F5F1F4F2F4F3F4F08950191108171
:100220000DC0B5DF0DC0B3DF10C00191108117FF05
:1002300005C03FEF2FEF04C000811127222733278D
:1002400037FF03C0E2DF8DE28D93CF92DF92EF9212
:10025000AA24BB24CC24DD24EE2440E2EAE0FF27DC
:1002600055E093E38081890F87FD9F7083FD907F28
:10027000891B81935A95A9F7C3DFAA1CBB1CCC1C10
:10028000DD1CEE1C4A9551F7E894EFE0FF278291C0
:100290000CD0EB30E0F71EF068948A2D0AD0882746
:1002A0008D93EF90DF90CF900895982F829501D095
:1002B000892F8F70805D26F0803309F4089568944B
:1002C0008D930895E89463F80895547565726F6589
:1002D00066666E65722056312E306100536573611B
:0C02E0006D002000536368726F7474009E
:00000001FF
